{
  "_format": "hh-sol-artifact-1",
  "contractName": "POAPFactory",
  "sourceName": "contracts/Lock.sol",
  "abi": [
    {
      "inputs": [
        {
          "internalType": "string",
          "name": "_name",
          "type": "string"
        },
        {
          "internalType": "string",
          "name": "_version",
          "type": "string"
        },
        {
          "internalType": "address",
          "name": "_relayer",
          "type": "address"
        }
      ],
      "stateMutability": "nonpayable",
      "type": "constructor"
    },
    {
      "inputs": [
        {
          "internalType": "string",
          "name": "_name",
          "type": "string"
        },
        {
          "internalType": "string",
          "name": "_baseURI",
          "type": "string"
        },
        {
          "internalType": "uint256",
          "name": "_maxLimit",
          "type": "uint256"
        }
      ],
      "name": "deploy",
      "outputs": [
        {
          "internalType": "address",
          "name": "",
          "type": "address"
        }
      ],
      "stateMutability": "payable",
      "type": "function"
    },
    {
      "inputs": [
        {
          "components": [
            {
              "internalType": "string",
              "name": "name",
              "type": "string"
            },
            {
              "internalType": "string",
              "name": "baseURI",
              "type": "string"
            },
            {
              "internalType": "uint256",
              "name": "maxLimit",
              "type": "uint256"
            }
          ],
          "internalType": "struct POAPFactory.CreateCollection",
          "name": "_collection",
          "type": "tuple"
        },
        {
          "internalType": "bytes",
          "name": "_signatureCollection",
          "type": "bytes"
        }
      ],
      "name": "deployGasLess",
      "outputs": [
        {
          "internalType": "address",
          "name": "",
          "type": "address"
        }
      ],
      "stateMutability": "payable",
      "type": "function"
    },
    {
      "inputs": [],
      "name": "name",
      "outputs": [
        {
          "internalType": "string",
          "name": "",
          "type": "string"
        }
      ],
      "stateMutability": "view",
      "type": "function"
    },
    {
      "inputs": [],
      "name": "owner",
      "outputs": [
        {
          "internalType": "address",
          "name": "",
          "type": "address"
        }
      ],
      "stateMutability": "view",
      "type": "function"
    },
    {
      "inputs": [],
      "name": "relayer",
      "outputs": [
        {
          "internalType": "address",
          "name": "",
          "type": "address"
        }
      ],
      "stateMutability": "view",
      "type": "function"
    },
    {
      "inputs": [
        {
          "components": [
            {
              "internalType": "string",
              "name": "name",
              "type": "string"
            },
            {
              "internalType": "string",
              "name": "baseURI",
              "type": "string"
            },
            {
              "internalType": "uint256",
              "name": "maxLimit",
              "type": "uint256"
            }
          ],
          "internalType": "struct POAPFactory.CreateCollection",
          "name": "_collection",
          "type": "tuple"
        },
        {
          "internalType": "bytes",
          "name": "_signatureCollection",
          "type": "bytes"
        }
      ],
      "name": "verifyCreator",
      "outputs": [
        {
          "internalType": "address",
          "name": "",
          "type": "address"
        }
      ],
      "stateMutability": "view",
      "type": "function"
    },
    {
      "inputs": [],
      "name": "version",
      "outputs": [
        {
          "internalType": "string",
          "name": "",
          "type": "string"
        }
      ],
      "stateMutability": "view",
      "type": "function"
    }
  ],
  "bytecode": "0x6101406040523480156200001257600080fd5b506040516200438e3803806200438e8339818101604052810190620000389190620003cf565b828260008280519060200120905060008280519060200120905060007f8b73c3c69bb8fe3d512ecc4cf759cc79239f7b179b0ffacaa9a75d522b39400f90508260e081815250508161010081815250504660a08181525050620000a38184846200019b60201b60201c565b608081815250503073ffffffffffffffffffffffffffffffffffffffff1660c08173ffffffffffffffffffffffffffffffffffffffff1681525050806101208181525050505050505033600260006101000a81548173ffffffffffffffffffffffffffffffffffffffff021916908373ffffffffffffffffffffffffffffffffffffffff16021790555082600090816200013e9190620006b4565b508160019081620001509190620006b4565b5080600360006101000a81548173ffffffffffffffffffffffffffffffffffffffff021916908373ffffffffffffffffffffffffffffffffffffffff16021790555050505062000835565b60008383834630604051602001620001b8959493929190620007d8565b6040516020818303038152906040528051906020012090509392505050565b6000604051905090565b600080fd5b600080fd5b600080fd5b600080fd5b6000601f19601f8301169050919050565b7f4e487b7100000000000000000000000000000000000000000000000000000000600052604160045260246000fd5b6200024082620001f5565b810181811067ffffffffffffffff8211171562000262576200026162000206565b5b80604052505050565b600062000277620001d7565b905062000285828262000235565b919050565b600067ffffffffffffffff821115620002a857620002a762000206565b5b620002b382620001f5565b9050602081019050919050565b60005b83811015620002e0578082015181840152602081019050620002c3565b60008484015250505050565b600062000303620002fd846200028a565b6200026b565b905082815260208101848484011115620003225762000321620001f0565b5b6200032f848285620002c0565b509392505050565b600082601f8301126200034f576200034e620001eb565b5b815162000361848260208601620002ec565b91505092915050565b600073ffffffffffffffffffffffffffffffffffffffff82169050919050565b600062000397826200036a565b9050919050565b620003a9816200038a565b8114620003b557600080fd5b50565b600081519050620003c9816200039e565b92915050565b600080600060608486031215620003eb57620003ea620001e1565b5b600084015167ffffffffffffffff8111156200040c576200040b620001e6565b5b6200041a8682870162000337565b935050602084015167ffffffffffffffff8111156200043e576200043d620001e6565b5b6200044c8682870162000337565b92505060406200045f86828701620003b8565b9150509250925092565b600081519050919050565b7f4e487b7100000000000000000000000000000000000000000000000000000000600052602260045260246000fd5b60006002820490506001821680620004bc57607f821691505b602082108103620004d257620004d162000474565b5b50919050565b60008190508160005260206000209050919050565b60006020601f8301049050919050565b600082821b905092915050565b6000600883026200053c7fffffffffffffffffffffffffffffffffffffffffffffffffffffffffffffffff82620004fd565b620005488683620004fd565b95508019841693508086168417925050509392505050565b6000819050919050565b6000819050919050565b6000620005956200058f620005898462000560565b6200056a565b62000560565b9050919050565b6000819050919050565b620005b18362000574565b620005c9620005c0826200059c565b8484546200050a565b825550505050565b600090565b620005e0620005d1565b620005ed818484620005a6565b505050565b5b81811015620006155762000609600082620005d6565b600181019050620005f3565b5050565b601f82111562000664576200062e81620004d8565b6200063984620004ed565b8101602085101562000649578190505b620006616200065885620004ed565b830182620005f2565b50505b505050565b600082821c905092915050565b6000620006896000198460080262000669565b1980831691505092915050565b6000620006a4838362000676565b9150826002028217905092915050565b620006bf8262000469565b67ffffffffffffffff811115620006db57620006da62000206565b5b620006e78254620004a3565b620006f482828562000619565b600060209050601f8311600181146200072c576000841562000717578287015190505b62000723858262000696565b86555062000793565b601f1984166200073c86620004d8565b60005b8281101562000766578489015182556001820191506020850194506020810190506200073f565b8683101562000786578489015162000782601f89168262000676565b8355505b6001600288020188555050505b505050505050565b6000819050919050565b620007b0816200079b565b82525050565b620007c18162000560565b82525050565b620007d2816200038a565b82525050565b600060a082019050620007ef6000830188620007a5565b620007fe6020830187620007a5565b6200080d6040830186620007a5565b6200081c6060830185620007b6565b6200082b6080830184620007c7565b9695505050505050565b60805160a05160c05160e0516101005161012051613b0962000885600039600061074f0152600061079101526000610770015260006106a1015260006106f8015260006107220152613b096000f3fe6080604052600436106200007a5760003560e01c806354fd4d50116200005557806354fd4d5014620001295780638406c07914620001595780638da5cb5b1462000189578063a373795e14620001b9576200007a565b806306fdde03146200007f57806343e50e7e14620000af5780634ef9809714620000f3575b600080fd5b3480156200008c57600080fd5b5062000097620001ef565b604051620000a6919062000b9b565b60405180910390f35b348015620000bc57600080fd5b50620000db6004803603810190620000d5919062000c68565b62000285565b604051620000ea919062000d36565b60405180910390f35b6200011160048036038101906200010b919062000eda565b6200036e565b60405162000120919062000d36565b60405180910390f35b3480156200013657600080fd5b50620001416200038c565b60405162000150919062000b9b565b60405180910390f35b3480156200016657600080fd5b506200017162000422565b60405162000180919062000d36565b60405180910390f35b3480156200019657600080fd5b50620001a162000448565b604051620001b0919062000d36565b60405180910390f35b620001d76004803603810190620001d1919062000c68565b6200046e565b604051620001e6919062000d36565b60405180910390f35b60008054620001fe9062000fa3565b80601f01602080910402602001604051908101604052809291908181526020018280546200022c9062000fa3565b80156200027d5780601f1062000251576101008083540402835291602001916200027d565b820191906000526020600020905b8154815290600101906020018083116200025f57829003601f168201915b505050505081565b6000806200036184848080601f016020809104026020016040519081016040528093929190818152602001838380828437600081840152601f19601f82011690508083019250505050505050620003527f4ad0bbce60e6e7955538e9728fa073a62f232a855398a9c5cb0145ed7caed21b88806000019062000308919062000fe7565b8a80602001906200031a919062000fe7565b8c604001356040516020016200033696959493929190620010b2565b60405160208183030381529060405280519060200120620005de565b620005fc90919063ffffffff16565b9050809150509392505050565b6000806200037f3386868662000627565b9050809150509392505050565b600180546200039b9062000fa3565b80601f0160208091040260200160405190810160405280929190818152602001828054620003c99062000fa3565b80156200041a5780601f10620003ee576101008083540402835291602001916200041a565b820191906000526020600020905b815481529060010190602001808311620003fc57829003601f168201915b505050505081565b600360009054906101000a900473ffffffffffffffffffffffffffffffffffffffff1681565b600260009054906101000a900473ffffffffffffffffffffffffffffffffffffffff1681565b60003373ffffffffffffffffffffffffffffffffffffffff16600360009054906101000a900473ffffffffffffffffffffffffffffffffffffffff1673ffffffffffffffffffffffffffffffffffffffff160362000503576040517f08c379a0000000000000000000000000000000000000000000000000000000008152600401620004fa9062001161565b60405180910390fd5b60006200051285858562000285565b90506000620005d0828780600001906200052d919062000fe7565b8080601f016020809104026020016040519081016040528093929190818152602001838380828437600081840152601f19601f8201169050808301925050505050505088806020019062000582919062000fe7565b8080601f016020809104026020016040519081016040528093929190818152602001838380828437600081840152601f19601f82011690508083019250505050505050896040013562000627565b905080925050509392505050565b6000620005f5620005ee6200069d565b83620007bc565b9050919050565b60008060006200060d8585620007f1565b915091506200061c8162000846565b819250505092915050565b6000803486600360009054906101000a900473ffffffffffffffffffffffffffffffffffffffff16878787604051620006609062000af3565b6200067095949392919062001183565b6040518091039082f09050801580156200068e573d6000803e3d6000fd5b50905080915050949350505050565b60007f000000000000000000000000000000000000000000000000000000000000000073ffffffffffffffffffffffffffffffffffffffff163073ffffffffffffffffffffffffffffffffffffffff161480156200071a57507f000000000000000000000000000000000000000000000000000000000000000046145b1562000749577f00000000000000000000000000000000000000000000000000000000000000009050620007b9565b620007b67f00000000000000000000000000000000000000000000000000000000000000007f00000000000000000000000000000000000000000000000000000000000000007f0000000000000000000000000000000000000000000000000000000000000000620009ce565b90505b90565b60008282604051602001620007d39291906200126e565b60405160208183030381529060405280519060200120905092915050565b6000806041835103620008365760008060006020860151925060408601519150606086015160001a9050620008298782858562000a0a565b945094505050506200083f565b60006002915091505b9250929050565b600060048111156200085d576200085c620012ab565b5b816004811115620008735762000872620012ab565b5b0315620009cb5760016004811115620008915762000890620012ab565b5b816004811115620008a757620008a6620012ab565b5b03620008ea576040517f08c379a0000000000000000000000000000000000000000000000000000000008152600401620008e1906200132a565b60405180910390fd5b60026004811115620009015762000900620012ab565b5b816004811115620009175762000916620012ab565b5b036200095a576040517f08c379a000000000000000000000000000000000000000000000000000000000815260040162000951906200139c565b60405180910390fd5b60036004811115620009715762000970620012ab565b5b816004811115620009875762000986620012ab565b5b03620009ca576040517f08c379a0000000000000000000000000000000000000000000000000000000008152600401620009c19062001434565b60405180910390fd5b5b50565b60008383834630604051602001620009eb95949392919062001456565b6040516020818303038152906040528051906020012090509392505050565b6000807f7fffffffffffffffffffffffffffffff5d576e7357a4501ddfe92f46681b20a08360001c111562000a4757600060039150915062000aea565b60006001878787876040516000815260200160405260405162000a6e9493929190620014d1565b6020604051602081039080840390855afa15801562000a91573d6000803e3d6000fd5b505050602060405103519050600073ffffffffffffffffffffffffffffffffffffffff168173ffffffffffffffffffffffffffffffffffffffff160362000ae15760006001925092505062000aea565b80600092509250505b94509492505050565b6125b5806200151f83390190565b600081519050919050565b600082825260208201905092915050565b60005b8381101562000b3d57808201518184015260208101905062000b20565b60008484015250505050565b6000601f19601f8301169050919050565b600062000b678262000b01565b62000b73818562000b0c565b935062000b8581856020860162000b1d565b62000b908162000b49565b840191505092915050565b6000602082019050818103600083015262000bb7818462000b5a565b905092915050565b6000604051905090565b600080fd5b600080fd5b600080fd5b60006060828403121562000bf15762000bf062000bd3565b5b81905092915050565b600080fd5b600080fd5b600080fd5b60008083601f84011262000c225762000c2162000bfa565b5b8235905067ffffffffffffffff81111562000c425762000c4162000bff565b5b60208301915083600182028301111562000c615762000c6062000c04565b5b9250929050565b60008060006040848603121562000c845762000c8362000bc9565b5b600084013567ffffffffffffffff81111562000ca55762000ca462000bce565b5b62000cb38682870162000bd8565b935050602084013567ffffffffffffffff81111562000cd75762000cd662000bce565b5b62000ce58682870162000c09565b92509250509250925092565b600073ffffffffffffffffffffffffffffffffffffffff82169050919050565b600062000d1e8262000cf1565b9050919050565b62000d308162000d11565b82525050565b600060208201905062000d4d600083018462000d25565b92915050565b600080fd5b7f4e487b7100000000000000000000000000000000000000000000000000000000600052604160045260246000fd5b62000d928262000b49565b810181811067ffffffffffffffff8211171562000db45762000db362000d58565b5b80604052505050565b600062000dc962000bbf565b905062000dd7828262000d87565b919050565b600067ffffffffffffffff82111562000dfa5762000df962000d58565b5b62000e058262000b49565b9050602081019050919050565b82818337600083830152505050565b600062000e3862000e328462000ddc565b62000dbd565b90508281526020810184848401111562000e575762000e5662000d53565b5b62000e6484828562000e12565b509392505050565b600082601f83011262000e845762000e8362000bfa565b5b813562000e9684826020860162000e21565b91505092915050565b6000819050919050565b62000eb48162000e9f565b811462000ec057600080fd5b50565b60008135905062000ed48162000ea9565b92915050565b60008060006060848603121562000ef65762000ef562000bc9565b5b600084013567ffffffffffffffff81111562000f175762000f1662000bce565b5b62000f258682870162000e6c565b935050602084013567ffffffffffffffff81111562000f495762000f4862000bce565b5b62000f578682870162000e6c565b925050604062000f6a8682870162000ec3565b9150509250925092565b7f4e487b7100000000000000000000000000000000000000000000000000000000600052602260045260246000fd5b6000600282049050600182168062000fbc57607f821691505b60208210810362000fd25762000fd162000f74565b5b50919050565b600080fd5b600080fd5b600080fd5b6000808335600160200384360303811262001007576200100662000fd8565b5b80840192508235915067ffffffffffffffff8211156200102c576200102b62000fdd565b5b6020830192506001820236038313156200104b576200104a62000fe2565b5b509250929050565b6000819050919050565b620010688162001053565b82525050565b60006200107c838562000b0c565b93506200108b83858462000e12565b620010968362000b49565b840190509392505050565b620010ac8162000e9f565b82525050565b6000608082019050620010c960008301896200105d565b8181036020830152620010de8187896200106e565b90508181036040830152620010f58185876200106e565b9050620011066060830184620010a1565b979650505050505050565b7f52656c61796572206973206e6f742077686974656c6973746564000000000000600082015250565b600062001149601a8362000b0c565b9150620011568262001111565b602082019050919050565b600060208201905081810360008301526200117c816200113a565b9050919050565b600060a0820190506200119a600083018862000d25565b620011a9602083018762000d25565b8181036040830152620011bd818662000b5a565b90508181036060830152620011d3818562000b5a565b9050620011e46080830184620010a1565b9695505050505050565b600081905092915050565b7f1901000000000000000000000000000000000000000000000000000000000000600082015250565b600062001231600283620011ee565b91506200123e82620011f9565b600282019050919050565b6000819050919050565b62001268620012628262001053565b62001249565b82525050565b60006200127b8262001222565b915062001289828562001253565b6020820191506200129b828462001253565b6020820191508190509392505050565b7f4e487b7100000000000000000000000000000000000000000000000000000000600052602160045260246000fd5b7f45434453413a20696e76616c6964207369676e61747572650000000000000000600082015250565b60006200131260188362000b0c565b91506200131f82620012da565b602082019050919050565b60006020820190508181036000830152620013458162001303565b9050919050565b7f45434453413a20696e76616c6964207369676e6174757265206c656e67746800600082015250565b600062001384601f8362000b0c565b915062001391826200134c565b602082019050919050565b60006020820190508181036000830152620013b78162001375565b9050919050565b7f45434453413a20696e76616c6964207369676e6174757265202773272076616c60008201527f7565000000000000000000000000000000000000000000000000000000000000602082015250565b60006200141c60228362000b0c565b91506200142982620013be565b604082019050919050565b600060208201905081810360008301526200144f816200140d565b9050919050565b600060a0820190506200146d60008301886200105d565b6200147c60208301876200105d565b6200148b60408301866200105d565b6200149a6060830185620010a1565b620014a9608083018462000d25565b9695505050505050565b600060ff82169050919050565b620014cb81620014b3565b82525050565b6000608082019050620014e860008301876200105d565b620014f76020830186620014c0565b6200150660408301856200105d565b6200151560608301846200105d565b9594505050505056fe610140604052604051620025b5380380620025b583398181016040528101906200002a9190620004a0565b826040518060400160405280600181526020017f310000000000000000000000000000000000000000000000000000000000000081525060008280519060200120905060008280519060200120905060007f8b73c3c69bb8fe3d512ecc4cf759cc79239f7b179b0ffacaa9a75d522b39400f90508260e081815250508161010081815250504660a08181525050620000ca8184846200023160201b60201c565b608081815250503073ffffffffffffffffffffffffffffffffffffffff1660c08173ffffffffffffffffffffffffffffffffffffffff1681525050806101208181525050505050505084600160006101000a81548173ffffffffffffffffffffffffffffffffffffffff021916908373ffffffffffffffffffffffffffffffffffffffff1602179055506001600760008673ffffffffffffffffffffffffffffffffffffffff1673ffffffffffffffffffffffffffffffffffffffff16815260200190815260200160002060006101000a81548160ff0219169083151502179055508260029081620001bd9190620007a7565b506040518060400160405280600181526020017f310000000000000000000000000000000000000000000000000000000000000081525060039081620002049190620007a7565b508160009081620002169190620007a7565b50600060048190555080600581905550505050505062000928565b600083838346306040516020016200024e959493929190620008cb565b6040516020818303038152906040528051906020012090509392505050565b6000604051905090565b600080fd5b600080fd5b600073ffffffffffffffffffffffffffffffffffffffff82169050919050565b6000620002ae8262000281565b9050919050565b620002c081620002a1565b8114620002cc57600080fd5b50565b600081519050620002e081620002b5565b92915050565b600080fd5b600080fd5b6000601f19601f8301169050919050565b7f4e487b7100000000000000000000000000000000000000000000000000000000600052604160045260246000fd5b6200033b82620002f0565b810181811067ffffffffffffffff821117156200035d576200035c62000301565b5b80604052505050565b6000620003726200026d565b905062000380828262000330565b919050565b600067ffffffffffffffff821115620003a357620003a262000301565b5b620003ae82620002f0565b9050602081019050919050565b60005b83811015620003db578082015181840152602081019050620003be565b60008484015250505050565b6000620003fe620003f88462000385565b62000366565b9050828152602081018484840111156200041d576200041c620002eb565b5b6200042a848285620003bb565b509392505050565b600082601f8301126200044a5762000449620002e6565b5b81516200045c848260208601620003e7565b91505092915050565b6000819050919050565b6200047a8162000465565b81146200048657600080fd5b50565b6000815190506200049a816200046f565b92915050565b600080600080600060a08688031215620004bf57620004be62000277565b5b6000620004cf88828901620002cf565b9550506020620004e288828901620002cf565b945050604086015167ffffffffffffffff8111156200050657620005056200027c565b5b620005148882890162000432565b935050606086015167ffffffffffffffff8111156200053857620005376200027c565b5b620005468882890162000432565b9250506080620005598882890162000489565b9150509295509295909350565b600081519050919050565b7f4e487b7100000000000000000000000000000000000000000000000000000000600052602260045260246000fd5b60006002820490506001821680620005b957607f821691505b602082108103620005cf57620005ce62000571565b5b50919050565b60008190508160005260206000209050919050565b60006020601f8301049050919050565b600082821b905092915050565b600060088302620006397fffffffffffffffffffffffffffffffffffffffffffffffffffffffffffffffff82620005fa565b620006458683620005fa565b95508019841693508086168417925050509392505050565b6000819050919050565b600062000688620006826200067c8462000465565b6200065d565b62000465565b9050919050565b6000819050919050565b620006a48362000667565b620006bc620006b3826200068f565b84845462000607565b825550505050565b600090565b620006d3620006c4565b620006e081848462000699565b505050565b5b818110156200070857620006fc600082620006c9565b600181019050620006e6565b5050565b601f82111562000757576200072181620005d5565b6200072c84620005ea565b810160208510156200073c578190505b620007546200074b85620005ea565b830182620006e5565b50505b505050565b600082821c905092915050565b60006200077c600019846008026200075c565b1980831691505092915050565b600062000797838362000769565b9150826002028217905092915050565b620007b28262000566565b67ffffffffffffffff811115620007ce57620007cd62000301565b5b620007da8254620005a0565b620007e78282856200070c565b600060209050601f8311600181146200081f57600084156200080a578287015190505b62000816858262000789565b86555062000886565b601f1984166200082f86620005d5565b60005b82811015620008595784890151825560018201915060208501945060208101905062000832565b8683101562000879578489015162000875601f89168262000769565b8355505b6001600288020188555050505b505050505050565b6000819050919050565b620008a3816200088e565b82525050565b620008b48162000465565b82525050565b620008c581620002a1565b82525050565b600060a082019050620008e2600083018862000898565b620008f1602083018762000898565b62000900604083018662000898565b6200090f6060830185620008a9565b6200091e6080830184620008ba565b9695505050505050565b60805160a05160c05160e0516101005161012051611c3d620009786000396000610da901526000610deb01526000610dca01526000610cff01526000610d5501526000610d7e0152611c3d6000f3fe608060405234801561001057600080fd5b50600436106100a85760003560e01c806354fd4d501161007157806354fd4d50146101415780636352211e1461015f57806370a082311461018f5780638da5cb5b146101bf578063adcf6687146101dd578063c87b56dd1461020d576100a8565b80629a9b7b146100ad57806306fdde03146100cb57806311149397146100e95780631a861d261461011957806344df8e7014610137575b600080fd5b6100b561023d565b6040516100c29190611134565b60405180910390f35b6100d3610243565b6040516100e091906111df565b60405180910390f35b61010360048036038101906100fe9190611294565b6102d1565b6040516101109190611134565b60405180910390f35b6101216106ad565b60405161012e9190611134565b60405180910390f35b61013f6106b3565b005b6101496108ba565b60405161015691906111df565b60405180910390f35b61017960048036038101906101749190611320565b610948565b604051610186919061138e565b60405180910390f35b6101a960048036038101906101a491906113d5565b610a2c565b6040516101b69190611134565b60405180910390f35b6101c7610ae3565b6040516101d4919061138e565b60405180910390f35b6101f760048036038101906101f29190611294565b610b09565b604051610204919061141d565b60405180910390f35b61022760048036038101906102229190611320565b610c26565b60405161023491906111df565b60405180910390f35b60045481565b6002805461025090611467565b80601f016020809104026020016040519081016040528092919081815260200182805461027c90611467565b80156102c95780601f1061029e576101008083540402835291602001916102c9565b820191906000526020600020905b8154815290600101906020018083116102ac57829003601f168201915b505050505081565b6000600760003373ffffffffffffffffffffffffffffffffffffffff1673ffffffffffffffffffffffffffffffffffffffff16815260200190815260200160002060009054906101000a900460ff1661035f576040517f08c379a0000000000000000000000000000000000000000000000000000000008152600401610356906114e4565b60405180910390fd5b60055460045411156103a6576040517f08c379a000000000000000000000000000000000000000000000000000000000815260040161039d90611550565b60405180910390fd5b6103b1848484610b09565b6103f0576040517f08c379a00000000000000000000000000000000000000000000000000000000081526004016103e7906115bc565b60405180910390fd5b600073ffffffffffffffffffffffffffffffffffffffff1684600001602081019061041b91906113d5565b73ffffffffffffffffffffffffffffffffffffffff1603610471576040517f08c379a000000000000000000000000000000000000000000000000000000000815260040161046890611628565b60405180910390fd5b60006008600086600001602081019061048a91906113d5565b73ffffffffffffffffffffffffffffffffffffffff1673ffffffffffffffffffffffffffffffffffffffff1681526020019081526020016000205414610505576040517f08c379a00000000000000000000000000000000000000000000000000000000081526004016104fc90611694565b60405180910390fd5b60046000815480929190610518906116e3565b91905055506000600454905084600001602081019061053791906113d5565b6006600083815260200190815260200160002060006101000a81548173ffffffffffffffffffffffffffffffffffffffff021916908373ffffffffffffffffffffffffffffffffffffffff16021790555080600860008760000160208101906105a091906113d5565b73ffffffffffffffffffffffffffffffffffffffff1673ffffffffffffffffffffffffffffffffffffffff16815260200190815260200160002081905550808560000160208101906105f291906113d5565b73ffffffffffffffffffffffffffffffffffffffff167f0f6798a560793a54c3bcfe86a93cde1e73087d944c0ea20544137d412139688560405160405180910390a38085600001602081019061064891906113d5565b73ffffffffffffffffffffffffffffffffffffffff16600073ffffffffffffffffffffffffffffffffffffffff167fddf252ad1be2c89b69c2b068fc378daa952ba7f163c4a11628f55a4df523b3ef60405160405180910390a4809150509392505050565b60055481565b60003390506000600860008373ffffffffffffffffffffffffffffffffffffffff1673ffffffffffffffffffffffffffffffffffffffff168152602001908152602001600020540361073a576040517f08c379a00000000000000000000000000000000000000000000000000000000081526004016107319061179d565b60405180910390fd5b6000600860008373ffffffffffffffffffffffffffffffffffffffff1673ffffffffffffffffffffffffffffffffffffffff1681526020019081526020016000205490506000600860008473ffffffffffffffffffffffffffffffffffffffff1673ffffffffffffffffffffffffffffffffffffffff1681526020019081526020016000208190555060006006600083815260200190815260200160002060006101000a81548173ffffffffffffffffffffffffffffffffffffffff021916908373ffffffffffffffffffffffffffffffffffffffff160217905550808273ffffffffffffffffffffffffffffffffffffffff167fcc16f5dbb4873280815c1ee09dbd06736cffcc184412cf7a71a0fdb75d397ca560405160405180910390a380600073ffffffffffffffffffffffffffffffffffffffff168373ffffffffffffffffffffffffffffffffffffffff167fddf252ad1be2c89b69c2b068fc378daa952ba7f163c4a11628f55a4df523b3ef60405160405180910390a45050565b600380546108c790611467565b80601f01602080910402602001604051908101604052809291908181526020018280546108f390611467565b80156109405780601f1061091557610100808354040283529160200191610940565b820191906000526020600020905b81548152906001019060200180831161092357829003601f168201915b505050505081565b6000806006600084815260200190815260200160002060009054906101000a900473ffffffffffffffffffffffffffffffffffffffff169050600073ffffffffffffffffffffffffffffffffffffffff166006600085815260200190815260200160002060009054906101000a900473ffffffffffffffffffffffffffffffffffffffff1673ffffffffffffffffffffffffffffffffffffffff1603610a23576040517f08c379a0000000000000000000000000000000000000000000000000000000008152600401610a1a90611809565b60405180910390fd5b80915050919050565b60008073ffffffffffffffffffffffffffffffffffffffff168273ffffffffffffffffffffffffffffffffffffffff1603610a9c576040517f08c379a0000000000000000000000000000000000000000000000000000000008152600401610a939061189b565b60405180910390fd5b600860008373ffffffffffffffffffffffffffffffffffffffff1673ffffffffffffffffffffffffffffffffffffffff168152602001908152602001600020549050919050565b600160009054906101000a900473ffffffffffffffffffffffffffffffffffffffff1681565b600080610bd984848080601f016020809104026020016040519081016040528093929190818152602001838380828437600081840152601f19601f82011690508083019250505050505050610bcb7fd4a633221577486fe9819fea61642a844cf5301f200bcd2bf7b34fdd9f69cb84886000016020810190610b8b91906113d5565b896020016020810190610b9e91906113d5565b604051602001610bb0939291906118d4565b60405160208183030381529060405280519060200120610cba565b610cd490919063ffffffff16565b9050846000016020810190610bee91906113d5565b73ffffffffffffffffffffffffffffffffffffffff168173ffffffffffffffffffffffffffffffffffffffff16149150509392505050565b606060008054610c3590611467565b80601f0160208091040260200160405190810160405280929190818152602001828054610c6190611467565b8015610cae5780601f10610c8357610100808354040283529160200191610cae565b820191906000526020600020905b815481529060010190602001808311610c9157829003601f168201915b50505050509050919050565b6000610ccd610cc7610cfb565b83610e15565b9050919050565b6000806000610ce38585610e48565b91509150610cf081610e99565b819250505092915050565b60007f000000000000000000000000000000000000000000000000000000000000000073ffffffffffffffffffffffffffffffffffffffff163073ffffffffffffffffffffffffffffffffffffffff16148015610d7757507f000000000000000000000000000000000000000000000000000000000000000046145b15610da4577f00000000000000000000000000000000000000000000000000000000000000009050610e12565b610e0f7f00000000000000000000000000000000000000000000000000000000000000007f00000000000000000000000000000000000000000000000000000000000000007f0000000000000000000000000000000000000000000000000000000000000000610fff565b90505b90565b60008282604051602001610e2a929190611983565b60405160208183030381529060405280519060200120905092915050565b6000806041835103610e895760008060006020860151925060408601519150606086015160001a9050610e7d87828585611039565b94509450505050610e92565b60006002915091505b9250929050565b60006004811115610ead57610eac6119ba565b5b816004811115610ec057610ebf6119ba565b5b0315610ffc5760016004811115610eda57610ed96119ba565b5b816004811115610eed57610eec6119ba565b5b03610f2d576040517f08c379a0000000000000000000000000000000000000000000000000000000008152600401610f2490611a35565b60405180910390fd5b60026004811115610f4157610f406119ba565b5b816004811115610f5457610f536119ba565b5b03610f94576040517f08c379a0000000000000000000000000000000000000000000000000000000008152600401610f8b90611aa1565b60405180910390fd5b60036004811115610fa857610fa76119ba565b5b816004811115610fbb57610fba6119ba565b5b03610ffb576040517f08c379a0000000000000000000000000000000000000000000000000000000008152600401610ff290611b33565b60405180910390fd5b5b50565b6000838383463060405160200161101a959493929190611b53565b6040516020818303038152906040528051906020012090509392505050565b6000807f7fffffffffffffffffffffffffffffff5d576e7357a4501ddfe92f46681b20a08360001c1115611074576000600391509150611112565b6000600187878787604051600081526020016040526040516110999493929190611bc2565b6020604051602081039080840390855afa1580156110bb573d6000803e3d6000fd5b505050602060405103519050600073ffffffffffffffffffffffffffffffffffffffff168173ffffffffffffffffffffffffffffffffffffffff160361110957600060019250925050611112565b80600092509250505b94509492505050565b6000819050919050565b61112e8161111b565b82525050565b60006020820190506111496000830184611125565b92915050565b600081519050919050565b600082825260208201905092915050565b60005b8381101561118957808201518184015260208101905061116e565b60008484015250505050565b6000601f19601f8301169050919050565b60006111b18261114f565b6111bb818561115a565b93506111cb81856020860161116b565b6111d481611195565b840191505092915050565b600060208201905081810360008301526111f981846111a6565b905092915050565b600080fd5b600080fd5b600080fd5b6000604082840312156112265761122561120b565b5b81905092915050565b600080fd5b600080fd5b600080fd5b60008083601f8401126112545761125361122f565b5b8235905067ffffffffffffffff81111561127157611270611234565b5b60208301915083600182028301111561128d5761128c611239565b5b9250929050565b6000806000606084860312156112ad576112ac611201565b5b60006112bb86828701611210565b935050604084013567ffffffffffffffff8111156112dc576112db611206565b5b6112e88682870161123e565b92509250509250925092565b6112fd8161111b565b811461130857600080fd5b50565b60008135905061131a816112f4565b92915050565b60006020828403121561133657611335611201565b5b60006113448482850161130b565b91505092915050565b600073ffffffffffffffffffffffffffffffffffffffff82169050919050565b60006113788261134d565b9050919050565b6113888161136d565b82525050565b60006020820190506113a3600083018461137f565b92915050565b6113b28161136d565b81146113bd57600080fd5b50565b6000813590506113cf816113a9565b92915050565b6000602082840312156113eb576113ea611201565b5b60006113f9848285016113c0565b91505092915050565b60008115159050919050565b61141781611402565b82525050565b6000602082019050611432600083018461140e565b92915050565b7f4e487b7100000000000000000000000000000000000000000000000000000000600052602260045260246000fd5b6000600282049050600182168061147f57607f821691505b60208210810361149257611491611438565b5b50919050565b7f52656c61796572206973206e6f742077686974656c6973746564000000000000600082015250565b60006114ce601a8361115a565b91506114d982611498565b602082019050919050565b600060208201905081810360008301526114fd816114c1565b9050919050565b7f4d6178206c696d697420504f4150000000000000000000000000000000000000600082015250565b600061153a600e8361115a565b915061154582611504565b602082019050919050565b600060208201905081810360008301526115698161152d565b9050919050565b7f496e76616c6964207369676e6174757265000000000000000000000000000000600082015250565b60006115a660118361115a565b91506115b182611570565b602082019050919050565b600060208201905081810360008301526115d581611599565b9050919050565b7f4164647265737320697320656d70747900000000000000000000000000000000600082015250565b600061161260108361115a565b915061161d826115dc565b602082019050919050565b6000602082019050818103600083015261164181611605565b9050919050565b7f4164647265737320616c7265616479206861766520504f415000000000000000600082015250565b600061167e60198361115a565b915061168982611648565b602082019050919050565b600060208201905081810360008301526116ad81611671565b9050919050565b7f4e487b7100000000000000000000000000000000000000000000000000000000600052601160045260246000fd5b60006116ee8261111b565b91507fffffffffffffffffffffffffffffffffffffffffffffffffffffffffffffffff82036117205761171f6116b4565b5b600182019050919050565b7f546865206163636f756e7420646f6573206e6f74206861766520616e7920534260008201527f5400000000000000000000000000000000000000000000000000000000000000602082015250565b600061178760218361115a565b91506117928261172b565b604082019050919050565b600060208201905081810360008301526117b68161177a565b9050919050565b7f504f41503a20696e76616c696420746f6b656e20494400000000000000000000600082015250565b60006117f360168361115a565b91506117fe826117bd565b602082019050919050565b60006020820190508181036000830152611822816117e6565b9050919050565b7f50414f503a2061646472657373207a65726f206973206e6f7420612076616c6960008201527f64206f776e657200000000000000000000000000000000000000000000000000602082015250565b600061188560278361115a565b915061189082611829565b604082019050919050565b600060208201905081810360008301526118b481611878565b9050919050565b6000819050919050565b6118ce816118bb565b82525050565b60006060820190506118e960008301866118c5565b6118f6602083018561137f565b611903604083018461137f565b949350505050565b600081905092915050565b7f1901000000000000000000000000000000000000000000000000000000000000600082015250565b600061194c60028361190b565b915061195782611916565b600282019050919050565b6000819050919050565b61197d611978826118bb565b611962565b82525050565b600061198e8261193f565b915061199a828561196c565b6020820191506119aa828461196c565b6020820191508190509392505050565b7f4e487b7100000000000000000000000000000000000000000000000000000000600052602160045260246000fd5b7f45434453413a20696e76616c6964207369676e61747572650000000000000000600082015250565b6000611a1f60188361115a565b9150611a2a826119e9565b602082019050919050565b60006020820190508181036000830152611a4e81611a12565b9050919050565b7f45434453413a20696e76616c6964207369676e6174757265206c656e67746800600082015250565b6000611a8b601f8361115a565b9150611a9682611a55565b602082019050919050565b60006020820190508181036000830152611aba81611a7e565b9050919050565b7f45434453413a20696e76616c6964207369676e6174757265202773272076616c60008201527f7565000000000000000000000000000000000000000000000000000000000000602082015250565b6000611b1d60228361115a565b9150611b2882611ac1565b604082019050919050565b60006020820190508181036000830152611b4c81611b10565b9050919050565b600060a082019050611b6860008301886118c5565b611b7560208301876118c5565b611b8260408301866118c5565b611b8f6060830185611125565b611b9c608083018461137f565b9695505050505050565b600060ff82169050919050565b611bbc81611ba6565b82525050565b6000608082019050611bd760008301876118c5565b611be46020830186611bb3565b611bf160408301856118c5565b611bfe60608301846118c5565b9594505050505056fea2646970667358221220d06a973d0a71e99d6d5e5238368f03660a04d58c0bf219e640115291f0125b5564736f6c63430008110033a26469706673582212202c979bcc18eacaa43eac03f23300481abe5e2f9dca6bfe7db036748c7ea6f22464736f6c63430008110033",
  "linkReferences": {},
  "deployedLinkReferences": {}
}