{
  "_format": "hh-sol-artifact-1",
  "contractName": "VKPOAP",
  "sourceName": "contracts/Lock.sol",
  "abi": [
    {
      "inputs": [
        {
          "internalType": "address",
          "name": "_owner",
          "type": "address"
        },
        {
          "internalType": "address",
          "name": "_relayer",
          "type": "address"
        },
        {
          "internalType": "string",
          "name": "_name",
          "type": "string"
        },
        {
          "internalType": "string",
          "name": "_baseURI",
          "type": "string"
        },
        {
          "internalType": "uint256",
          "name": "_maxLimit",
          "type": "uint256"
        }
      ],
      "stateMutability": "payable",
      "type": "constructor"
    },
    {
      "anonymous": false,
      "inputs": [
        {
          "indexed": true,
          "internalType": "address",
          "name": "from",
          "type": "address"
        },
        {
          "indexed": true,
          "internalType": "uint256",
          "name": "tokenId",
          "type": "uint256"
        }
      ],
      "name": "Burn",
      "type": "event"
    },
    {
      "anonymous": false,
      "inputs": [
        {
          "indexed": true,
          "internalType": "address",
          "name": "to",
          "type": "address"
        },
        {
          "indexed": true,
          "internalType": "uint256",
          "name": "tokenId",
          "type": "uint256"
        }
      ],
      "name": "Mint",
      "type": "event"
    },
    {
      "anonymous": false,
      "inputs": [
        {
          "indexed": true,
          "internalType": "address",
          "name": "from",
          "type": "address"
        },
        {
          "indexed": true,
          "internalType": "address",
          "name": "to",
          "type": "address"
        },
        {
          "indexed": true,
          "internalType": "uint256",
          "name": "tokenId",
          "type": "uint256"
        }
      ],
      "name": "Transfer",
      "type": "event"
    },
    {
      "inputs": [
        {
          "internalType": "address",
          "name": "_owner",
          "type": "address"
        }
      ],
      "name": "balanceOf",
      "outputs": [
        {
          "internalType": "uint256",
          "name": "",
          "type": "uint256"
        }
      ],
      "stateMutability": "view",
      "type": "function"
    },
    {
      "inputs": [],
      "name": "burn",
      "outputs": [],
      "stateMutability": "nonpayable",
      "type": "function"
    },
    {
      "inputs": [],
      "name": "currentTokenId",
      "outputs": [
        {
          "internalType": "uint256",
          "name": "",
          "type": "uint256"
        }
      ],
      "stateMutability": "view",
      "type": "function"
    },
    {
      "inputs": [],
      "name": "maxLimit",
      "outputs": [
        {
          "internalType": "uint256",
          "name": "",
          "type": "uint256"
        }
      ],
      "stateMutability": "view",
      "type": "function"
    },
    {
      "inputs": [
        {
          "components": [
            {
              "internalType": "address",
              "name": "minter",
              "type": "address"
            },
            {
              "internalType": "address",
              "name": "contractAddress",
              "type": "address"
            }
          ],
          "internalType": "struct VKPOAP.POAPmint",
          "name": "_POAPm",
          "type": "tuple"
        },
        {
          "internalType": "bytes",
          "name": "_signature",
          "type": "bytes"
        }
      ],
      "name": "mint",
      "outputs": [
        {
          "internalType": "uint256",
          "name": "",
          "type": "uint256"
        }
      ],
      "stateMutability": "nonpayable",
      "type": "function"
    },
    {
      "inputs": [],
      "name": "name",
      "outputs": [
        {
          "internalType": "string",
          "name": "",
          "type": "string"
        }
      ],
      "stateMutability": "view",
      "type": "function"
    },
    {
      "inputs": [],
      "name": "owner",
      "outputs": [
        {
          "internalType": "address",
          "name": "",
          "type": "address"
        }
      ],
      "stateMutability": "view",
      "type": "function"
    },
    {
      "inputs": [
        {
          "internalType": "uint256",
          "name": "_tokenId",
          "type": "uint256"
        }
      ],
      "name": "ownerOf",
      "outputs": [
        {
          "internalType": "address",
          "name": "",
          "type": "address"
        }
      ],
      "stateMutability": "view",
      "type": "function"
    },
    {
      "inputs": [
        {
          "internalType": "uint256",
          "name": "_tokenId",
          "type": "uint256"
        }
      ],
      "name": "tokenURI",
      "outputs": [
        {
          "internalType": "string",
          "name": "",
          "type": "string"
        }
      ],
      "stateMutability": "view",
      "type": "function"
    },
    {
      "inputs": [
        {
          "components": [
            {
              "internalType": "address",
              "name": "minter",
              "type": "address"
            },
            {
              "internalType": "address",
              "name": "contractAddress",
              "type": "address"
            }
          ],
          "internalType": "struct VKPOAP.POAPmint",
          "name": "_POAPm",
          "type": "tuple"
        },
        {
          "internalType": "bytes",
          "name": "_signature",
          "type": "bytes"
        }
      ],
      "name": "verifyMint",
      "outputs": [
        {
          "internalType": "bool",
          "name": "",
          "type": "bool"
        }
      ],
      "stateMutability": "view",
      "type": "function"
    },
    {
      "inputs": [],
      "name": "version",
      "outputs": [
        {
          "internalType": "string",
          "name": "",
          "type": "string"
        }
      ],
      "stateMutability": "view",
      "type": "function"
    }
  ],
  "bytecode": "0x610140604052604051620025b5380380620025b583398181016040528101906200002a9190620004a0565b826040518060400160405280600181526020017f310000000000000000000000000000000000000000000000000000000000000081525060008280519060200120905060008280519060200120905060007f8b73c3c69bb8fe3d512ecc4cf759cc79239f7b179b0ffacaa9a75d522b39400f90508260e081815250508161010081815250504660a08181525050620000ca8184846200023160201b60201c565b608081815250503073ffffffffffffffffffffffffffffffffffffffff1660c08173ffffffffffffffffffffffffffffffffffffffff1681525050806101208181525050505050505084600160006101000a81548173ffffffffffffffffffffffffffffffffffffffff021916908373ffffffffffffffffffffffffffffffffffffffff1602179055506001600760008673ffffffffffffffffffffffffffffffffffffffff1673ffffffffffffffffffffffffffffffffffffffff16815260200190815260200160002060006101000a81548160ff0219169083151502179055508260029081620001bd9190620007a7565b506040518060400160405280600181526020017f310000000000000000000000000000000000000000000000000000000000000081525060039081620002049190620007a7565b508160009081620002169190620007a7565b50600060048190555080600581905550505050505062000928565b600083838346306040516020016200024e959493929190620008cb565b6040516020818303038152906040528051906020012090509392505050565b6000604051905090565b600080fd5b600080fd5b600073ffffffffffffffffffffffffffffffffffffffff82169050919050565b6000620002ae8262000281565b9050919050565b620002c081620002a1565b8114620002cc57600080fd5b50565b600081519050620002e081620002b5565b92915050565b600080fd5b600080fd5b6000601f19601f8301169050919050565b7f4e487b7100000000000000000000000000000000000000000000000000000000600052604160045260246000fd5b6200033b82620002f0565b810181811067ffffffffffffffff821117156200035d576200035c62000301565b5b80604052505050565b6000620003726200026d565b905062000380828262000330565b919050565b600067ffffffffffffffff821115620003a357620003a262000301565b5b620003ae82620002f0565b9050602081019050919050565b60005b83811015620003db578082015181840152602081019050620003be565b60008484015250505050565b6000620003fe620003f88462000385565b62000366565b9050828152602081018484840111156200041d576200041c620002eb565b5b6200042a848285620003bb565b509392505050565b600082601f8301126200044a5762000449620002e6565b5b81516200045c848260208601620003e7565b91505092915050565b6000819050919050565b6200047a8162000465565b81146200048657600080fd5b50565b6000815190506200049a816200046f565b92915050565b600080600080600060a08688031215620004bf57620004be62000277565b5b6000620004cf88828901620002cf565b9550506020620004e288828901620002cf565b945050604086015167ffffffffffffffff8111156200050657620005056200027c565b5b620005148882890162000432565b935050606086015167ffffffffffffffff8111156200053857620005376200027c565b5b620005468882890162000432565b9250506080620005598882890162000489565b9150509295509295909350565b600081519050919050565b7f4e487b7100000000000000000000000000000000000000000000000000000000600052602260045260246000fd5b60006002820490506001821680620005b957607f821691505b602082108103620005cf57620005ce62000571565b5b50919050565b60008190508160005260206000209050919050565b60006020601f8301049050919050565b600082821b905092915050565b600060088302620006397fffffffffffffffffffffffffffffffffffffffffffffffffffffffffffffffff82620005fa565b620006458683620005fa565b95508019841693508086168417925050509392505050565b6000819050919050565b600062000688620006826200067c8462000465565b6200065d565b62000465565b9050919050565b6000819050919050565b620006a48362000667565b620006bc620006b3826200068f565b84845462000607565b825550505050565b600090565b620006d3620006c4565b620006e081848462000699565b505050565b5b818110156200070857620006fc600082620006c9565b600181019050620006e6565b5050565b601f82111562000757576200072181620005d5565b6200072c84620005ea565b810160208510156200073c578190505b620007546200074b85620005ea565b830182620006e5565b50505b505050565b600082821c905092915050565b60006200077c600019846008026200075c565b1980831691505092915050565b600062000797838362000769565b9150826002028217905092915050565b620007b28262000566565b67ffffffffffffffff811115620007ce57620007cd62000301565b5b620007da8254620005a0565b620007e78282856200070c565b600060209050601f8311600181146200081f57600084156200080a578287015190505b62000816858262000789565b86555062000886565b601f1984166200082f86620005d5565b60005b82811015620008595784890151825560018201915060208501945060208101905062000832565b8683101562000879578489015162000875601f89168262000769565b8355505b6001600288020188555050505b505050505050565b6000819050919050565b620008a3816200088e565b82525050565b620008b48162000465565b82525050565b620008c581620002a1565b82525050565b600060a082019050620008e2600083018862000898565b620008f1602083018762000898565b62000900604083018662000898565b6200090f6060830185620008a9565b6200091e6080830184620008ba565b9695505050505050565b60805160a05160c05160e0516101005161012051611c3d620009786000396000610da901526000610deb01526000610dca01526000610cff01526000610d5501526000610d7e0152611c3d6000f3fe608060405234801561001057600080fd5b50600436106100a85760003560e01c806354fd4d501161007157806354fd4d50146101415780636352211e1461015f57806370a082311461018f5780638da5cb5b146101bf578063adcf6687146101dd578063c87b56dd1461020d576100a8565b80629a9b7b146100ad57806306fdde03146100cb57806311149397146100e95780631a861d261461011957806344df8e7014610137575b600080fd5b6100b561023d565b6040516100c29190611134565b60405180910390f35b6100d3610243565b6040516100e091906111df565b60405180910390f35b61010360048036038101906100fe9190611294565b6102d1565b6040516101109190611134565b60405180910390f35b6101216106ad565b60405161012e9190611134565b60405180910390f35b61013f6106b3565b005b6101496108ba565b60405161015691906111df565b60405180910390f35b61017960048036038101906101749190611320565b610948565b604051610186919061138e565b60405180910390f35b6101a960048036038101906101a491906113d5565b610a2c565b6040516101b69190611134565b60405180910390f35b6101c7610ae3565b6040516101d4919061138e565b60405180910390f35b6101f760048036038101906101f29190611294565b610b09565b604051610204919061141d565b60405180910390f35b61022760048036038101906102229190611320565b610c26565b60405161023491906111df565b60405180910390f35b60045481565b6002805461025090611467565b80601f016020809104026020016040519081016040528092919081815260200182805461027c90611467565b80156102c95780601f1061029e576101008083540402835291602001916102c9565b820191906000526020600020905b8154815290600101906020018083116102ac57829003601f168201915b505050505081565b6000600760003373ffffffffffffffffffffffffffffffffffffffff1673ffffffffffffffffffffffffffffffffffffffff16815260200190815260200160002060009054906101000a900460ff1661035f576040517f08c379a0000000000000000000000000000000000000000000000000000000008152600401610356906114e4565b60405180910390fd5b60055460045411156103a6576040517f08c379a000000000000000000000000000000000000000000000000000000000815260040161039d90611550565b60405180910390fd5b6103b1848484610b09565b6103f0576040517f08c379a00000000000000000000000000000000000000000000000000000000081526004016103e7906115bc565b60405180910390fd5b600073ffffffffffffffffffffffffffffffffffffffff1684600001602081019061041b91906113d5565b73ffffffffffffffffffffffffffffffffffffffff1603610471576040517f08c379a000000000000000000000000000000000000000000000000000000000815260040161046890611628565b60405180910390fd5b60006008600086600001602081019061048a91906113d5565b73ffffffffffffffffffffffffffffffffffffffff1673ffffffffffffffffffffffffffffffffffffffff1681526020019081526020016000205414610505576040517f08c379a00000000000000000000000000000000000000000000000000000000081526004016104fc90611694565b60405180910390fd5b60046000815480929190610518906116e3565b91905055506000600454905084600001602081019061053791906113d5565b6006600083815260200190815260200160002060006101000a81548173ffffffffffffffffffffffffffffffffffffffff021916908373ffffffffffffffffffffffffffffffffffffffff16021790555080600860008760000160208101906105a091906113d5565b73ffffffffffffffffffffffffffffffffffffffff1673ffffffffffffffffffffffffffffffffffffffff16815260200190815260200160002081905550808560000160208101906105f291906113d5565b73ffffffffffffffffffffffffffffffffffffffff167f0f6798a560793a54c3bcfe86a93cde1e73087d944c0ea20544137d412139688560405160405180910390a38085600001602081019061064891906113d5565b73ffffffffffffffffffffffffffffffffffffffff16600073ffffffffffffffffffffffffffffffffffffffff167fddf252ad1be2c89b69c2b068fc378daa952ba7f163c4a11628f55a4df523b3ef60405160405180910390a4809150509392505050565b60055481565b60003390506000600860008373ffffffffffffffffffffffffffffffffffffffff1673ffffffffffffffffffffffffffffffffffffffff168152602001908152602001600020540361073a576040517f08c379a00000000000000000000000000000000000000000000000000000000081526004016107319061179d565b60405180910390fd5b6000600860008373ffffffffffffffffffffffffffffffffffffffff1673ffffffffffffffffffffffffffffffffffffffff1681526020019081526020016000205490506000600860008473ffffffffffffffffffffffffffffffffffffffff1673ffffffffffffffffffffffffffffffffffffffff1681526020019081526020016000208190555060006006600083815260200190815260200160002060006101000a81548173ffffffffffffffffffffffffffffffffffffffff021916908373ffffffffffffffffffffffffffffffffffffffff160217905550808273ffffffffffffffffffffffffffffffffffffffff167fcc16f5dbb4873280815c1ee09dbd06736cffcc184412cf7a71a0fdb75d397ca560405160405180910390a380600073ffffffffffffffffffffffffffffffffffffffff168373ffffffffffffffffffffffffffffffffffffffff167fddf252ad1be2c89b69c2b068fc378daa952ba7f163c4a11628f55a4df523b3ef60405160405180910390a45050565b600380546108c790611467565b80601f01602080910402602001604051908101604052809291908181526020018280546108f390611467565b80156109405780601f1061091557610100808354040283529160200191610940565b820191906000526020600020905b81548152906001019060200180831161092357829003601f168201915b505050505081565b6000806006600084815260200190815260200160002060009054906101000a900473ffffffffffffffffffffffffffffffffffffffff169050600073ffffffffffffffffffffffffffffffffffffffff166006600085815260200190815260200160002060009054906101000a900473ffffffffffffffffffffffffffffffffffffffff1673ffffffffffffffffffffffffffffffffffffffff1603610a23576040517f08c379a0000000000000000000000000000000000000000000000000000000008152600401610a1a90611809565b60405180910390fd5b80915050919050565b60008073ffffffffffffffffffffffffffffffffffffffff168273ffffffffffffffffffffffffffffffffffffffff1603610a9c576040517f08c379a0000000000000000000000000000000000000000000000000000000008152600401610a939061189b565b60405180910390fd5b600860008373ffffffffffffffffffffffffffffffffffffffff1673ffffffffffffffffffffffffffffffffffffffff168152602001908152602001600020549050919050565b600160009054906101000a900473ffffffffffffffffffffffffffffffffffffffff1681565b600080610bd984848080601f016020809104026020016040519081016040528093929190818152602001838380828437600081840152601f19601f82011690508083019250505050505050610bcb7fd4a633221577486fe9819fea61642a844cf5301f200bcd2bf7b34fdd9f69cb84886000016020810190610b8b91906113d5565b896020016020810190610b9e91906113d5565b604051602001610bb0939291906118d4565b60405160208183030381529060405280519060200120610cba565b610cd490919063ffffffff16565b9050846000016020810190610bee91906113d5565b73ffffffffffffffffffffffffffffffffffffffff168173ffffffffffffffffffffffffffffffffffffffff16149150509392505050565b606060008054610c3590611467565b80601f0160208091040260200160405190810160405280929190818152602001828054610c6190611467565b8015610cae5780601f10610c8357610100808354040283529160200191610cae565b820191906000526020600020905b815481529060010190602001808311610c9157829003601f168201915b50505050509050919050565b6000610ccd610cc7610cfb565b83610e15565b9050919050565b6000806000610ce38585610e48565b91509150610cf081610e99565b819250505092915050565b60007f000000000000000000000000000000000000000000000000000000000000000073ffffffffffffffffffffffffffffffffffffffff163073ffffffffffffffffffffffffffffffffffffffff16148015610d7757507f000000000000000000000000000000000000000000000000000000000000000046145b15610da4577f00000000000000000000000000000000000000000000000000000000000000009050610e12565b610e0f7f00000000000000000000000000000000000000000000000000000000000000007f00000000000000000000000000000000000000000000000000000000000000007f0000000000000000000000000000000000000000000000000000000000000000610fff565b90505b90565b60008282604051602001610e2a929190611983565b60405160208183030381529060405280519060200120905092915050565b6000806041835103610e895760008060006020860151925060408601519150606086015160001a9050610e7d87828585611039565b94509450505050610e92565b60006002915091505b9250929050565b60006004811115610ead57610eac6119ba565b5b816004811115610ec057610ebf6119ba565b5b0315610ffc5760016004811115610eda57610ed96119ba565b5b816004811115610eed57610eec6119ba565b5b03610f2d576040517f08c379a0000000000000000000000000000000000000000000000000000000008152600401610f2490611a35565b60405180910390fd5b60026004811115610f4157610f406119ba565b5b816004811115610f5457610f536119ba565b5b03610f94576040517f08c379a0000000000000000000000000000000000000000000000000000000008152600401610f8b90611aa1565b60405180910390fd5b60036004811115610fa857610fa76119ba565b5b816004811115610fbb57610fba6119ba565b5b03610ffb576040517f08c379a0000000000000000000000000000000000000000000000000000000008152600401610ff290611b33565b60405180910390fd5b5b50565b6000838383463060405160200161101a959493929190611b53565b6040516020818303038152906040528051906020012090509392505050565b6000807f7fffffffffffffffffffffffffffffff5d576e7357a4501ddfe92f46681b20a08360001c1115611074576000600391509150611112565b6000600187878787604051600081526020016040526040516110999493929190611bc2565b6020604051602081039080840390855afa1580156110bb573d6000803e3d6000fd5b505050602060405103519050600073ffffffffffffffffffffffffffffffffffffffff168173ffffffffffffffffffffffffffffffffffffffff160361110957600060019250925050611112565b80600092509250505b94509492505050565b6000819050919050565b61112e8161111b565b82525050565b60006020820190506111496000830184611125565b92915050565b600081519050919050565b600082825260208201905092915050565b60005b8381101561118957808201518184015260208101905061116e565b60008484015250505050565b6000601f19601f8301169050919050565b60006111b18261114f565b6111bb818561115a565b93506111cb81856020860161116b565b6111d481611195565b840191505092915050565b600060208201905081810360008301526111f981846111a6565b905092915050565b600080fd5b600080fd5b600080fd5b6000604082840312156112265761122561120b565b5b81905092915050565b600080fd5b600080fd5b600080fd5b60008083601f8401126112545761125361122f565b5b8235905067ffffffffffffffff81111561127157611270611234565b5b60208301915083600182028301111561128d5761128c611239565b5b9250929050565b6000806000606084860312156112ad576112ac611201565b5b60006112bb86828701611210565b935050604084013567ffffffffffffffff8111156112dc576112db611206565b5b6112e88682870161123e565b92509250509250925092565b6112fd8161111b565b811461130857600080fd5b50565b60008135905061131a816112f4565b92915050565b60006020828403121561133657611335611201565b5b60006113448482850161130b565b91505092915050565b600073ffffffffffffffffffffffffffffffffffffffff82169050919050565b60006113788261134d565b9050919050565b6113888161136d565b82525050565b60006020820190506113a3600083018461137f565b92915050565b6113b28161136d565b81146113bd57600080fd5b50565b6000813590506113cf816113a9565b92915050565b6000602082840312156113eb576113ea611201565b5b60006113f9848285016113c0565b91505092915050565b60008115159050919050565b61141781611402565b82525050565b6000602082019050611432600083018461140e565b92915050565b7f4e487b7100000000000000000000000000000000000000000000000000000000600052602260045260246000fd5b6000600282049050600182168061147f57607f821691505b60208210810361149257611491611438565b5b50919050565b7f52656c61796572206973206e6f742077686974656c6973746564000000000000600082015250565b60006114ce601a8361115a565b91506114d982611498565b602082019050919050565b600060208201905081810360008301526114fd816114c1565b9050919050565b7f4d6178206c696d697420504f4150000000000000000000000000000000000000600082015250565b600061153a600e8361115a565b915061154582611504565b602082019050919050565b600060208201905081810360008301526115698161152d565b9050919050565b7f496e76616c6964207369676e6174757265000000000000000000000000000000600082015250565b60006115a660118361115a565b91506115b182611570565b602082019050919050565b600060208201905081810360008301526115d581611599565b9050919050565b7f4164647265737320697320656d70747900000000000000000000000000000000600082015250565b600061161260108361115a565b915061161d826115dc565b602082019050919050565b6000602082019050818103600083015261164181611605565b9050919050565b7f4164647265737320616c7265616479206861766520504f415000000000000000600082015250565b600061167e60198361115a565b915061168982611648565b602082019050919050565b600060208201905081810360008301526116ad81611671565b9050919050565b7f4e487b7100000000000000000000000000000000000000000000000000000000600052601160045260246000fd5b60006116ee8261111b565b91507fffffffffffffffffffffffffffffffffffffffffffffffffffffffffffffffff82036117205761171f6116b4565b5b600182019050919050565b7f546865206163636f756e7420646f6573206e6f74206861766520616e7920534260008201527f5400000000000000000000000000000000000000000000000000000000000000602082015250565b600061178760218361115a565b91506117928261172b565b604082019050919050565b600060208201905081810360008301526117b68161177a565b9050919050565b7f504f41503a20696e76616c696420746f6b656e20494400000000000000000000600082015250565b60006117f360168361115a565b91506117fe826117bd565b602082019050919050565b60006020820190508181036000830152611822816117e6565b9050919050565b7f50414f503a2061646472657373207a65726f206973206e6f7420612076616c6960008201527f64206f776e657200000000000000000000000000000000000000000000000000602082015250565b600061188560278361115a565b915061189082611829565b604082019050919050565b600060208201905081810360008301526118b481611878565b9050919050565b6000819050919050565b6118ce816118bb565b82525050565b60006060820190506118e960008301866118c5565b6118f6602083018561137f565b611903604083018461137f565b949350505050565b600081905092915050565b7f1901000000000000000000000000000000000000000000000000000000000000600082015250565b600061194c60028361190b565b915061195782611916565b600282019050919050565b6000819050919050565b61197d611978826118bb565b611962565b82525050565b600061198e8261193f565b915061199a828561196c565b6020820191506119aa828461196c565b6020820191508190509392505050565b7f4e487b7100000000000000000000000000000000000000000000000000000000600052602160045260246000fd5b7f45434453413a20696e76616c6964207369676e61747572650000000000000000600082015250565b6000611a1f60188361115a565b9150611a2a826119e9565b602082019050919050565b60006020820190508181036000830152611a4e81611a12565b9050919050565b7f45434453413a20696e76616c6964207369676e6174757265206c656e67746800600082015250565b6000611a8b601f8361115a565b9150611a9682611a55565b602082019050919050565b60006020820190508181036000830152611aba81611a7e565b9050919050565b7f45434453413a20696e76616c6964207369676e6174757265202773272076616c60008201527f7565000000000000000000000000000000000000000000000000000000000000602082015250565b6000611b1d60228361115a565b9150611b2882611ac1565b604082019050919050565b60006020820190508181036000830152611b4c81611b10565b9050919050565b600060a082019050611b6860008301886118c5565b611b7560208301876118c5565b611b8260408301866118c5565b611b8f6060830185611125565b611b9c608083018461137f565b9695505050505050565b600060ff82169050919050565b611bbc81611ba6565b82525050565b6000608082019050611bd760008301876118c5565b611be46020830186611bb3565b611bf160408301856118c5565b611bfe60608301846118c5565b9594505050505056fea2646970667358221220d06a973d0a71e99d6d5e5238368f03660a04d58c0bf219e640115291f0125b5564736f6c63430008110033",
  "linkReferences": {},
  "deployedLinkReferences": {}
}